S01300006F70656E626C745F6574342E73726563B1
S3150800000000000220F9390008493A0008493A000870
S31508000010493A0008493A0008493A00080000000031
S31508000020000000000000000000000000493A000837
S31508000030493A000800000000493A0008D10A0008B9
S31508000040493A0008493A0008493A0008493A000876
S31508000050493A0008493A0008493A0008493A000866
S31508000060493A0008493A0008493A0008493A000856
S31508000070493A0008493A0008493A0008493A000846
S31508000080493A0008493A0008493A0008493A000836
S31508000090493A0008493A0008493A0008493A000826
S315080000A0493A0008493A0008493A0008493A000816
S315080000B0493A0008493A0008493A0008493A000806
S315080000C0493A0008493A0008493A0008493A0008F6
S315080000D0493A0008493A0008493A0008493A0008E6
S315080000E0493A0008493A0008493A0008493A0008D6
S315080000F0493A0008493A0008493A0008493A0008C6
S31508000100493A0008493A0008493A0008493A0008B5
S31508000110493A0008493A0008493A0008493A0008A5
S31508000120493A0008493A0008493A0008493A000895
S31508000130493A0008493A0008493A0008493A000885
S31508000140493A0008493A0008493A0008493A000875
S31508000150493A0008493A0008493A0008493A000865
S31508000160493A0008493A0008493A0008493A000855
S31508000170493A0008493A0008493A000800000000D0
S30D08000180493A0008493A000853
S3150800018810B5054C237833B9044B13B10448AFF3BB
S3150800019800800123237010BDE00100200000000044
S315080001A80C5B000808B5034B1BB103490348AFF3BA
S315080001B8008008BD00000000E40100200C5B000870
S315080001C853B94AB9002908BF00281CBF4FF0FF31A8
S315080001D84FF0FF3000F072B9ADF1080C6DE904CEA6
S315080001E800F006F8DDF804E0DDE9022304B07047FC
S315080001F82DE9F047089E04468846002B4BD18A42CB
S31508000208154667D9B2FA82F24AB1C2F1200701FA4D
S3150800021802F320FA07F7954047EA030894404FEA9D
S31508000228154E230CB8FBFEF71FFA85FC0EFB17883C
S3150800023843EA084307FB0CF1994209D9EB1807F179
S31508000248FF3080F01B81994240F21881023F2B4407
S315080002585B1AA4B2B3FBFEF00EFB103344EA034460
S3150800026800FB0CFCA44509D92C1900F1FF3380F0D2
S315080002780781A44540F2048102382C4440EA074025
S31508000288A4EB0C0400271EB1D4400023C6E900439A
S315080002983946BDE8F0878B4209D9002E00F0EB8075
S315080002A80027C6E9000138463946BDE8F087B3FA9B
S315080002B883F7002F47D18B4202D3824200F2FA8095
S315080002C8841A61EB030301209846002EE0D0C6E99C
S315080002D80048DDE702B9FFDEB2FA82F2002A40F0EA
S315080002E88F80491B4FEA154E1FFA85F80127B1FB7F
S315080002F8FEFC230C0EFB1C1143EA014308FB0CF118
S31508000308994207D9EB180CF1FF3002D2994200F24C
S31508000318CD808446591AA3B2B1FBFEF00EFB101421
S3150800032843EA044408FB00F8A04507D92C1900F14C
S31508000338FF3302D2A04500F2B6801846A4EB08049B
S3150800034840EA0C409FE7C7F1200CBB4022FA0CFE96
S315080003584EEA030E01FA07F420FA0CF521FA0CF313
S315080003684FEA1E482543B3FBF8F92C0C08FB19334A
S315080003781FFA8EFA44EA034309FB0AF49C4202FA76
S3150800038807F200FA07F10BD91EEB030309F1FF3050
S3150800039880F087809C4240F28480A9F10209734460
S315080003A81B1BADB2B3FBF8F008FB103345EA034450
S315080003B800FB0AFAA24508D91EEB040400F1FF332C
S315080003C86BD2A24569D90238744440EA0940A0FBB1
S315080003D80289A4EB0A044C45C2464B4654D351D06D
S315080003E8002E69D0B1EB0A0564EB030404FA0CFC89
S315080003F8FD40FC404CEA0505C6E90054002747E7D6
S31508000408C2F1200320FA03F7954001FA02F021FA0F
S3150800041803F34FEA154E3843010CB3FBFEF71FFAF0
S3150800042885F80EFB173341EA034107FB08F38B42AD
S3150800043804FA02F407D9691807F1FF3C2FD28B4250
S315080004482DD9023F2944CB1A81B2B3FBFEF00EFB25
S31508000458103341EA034100FB08F38B4207D96918B0
S3150800046800F1FF3C17D28B4215D902382944C91A1C
S3150800047840EA07473BE73746304609E70746E7E6CF
S315080004881846FBE64145ABD2B8EB020A69EB0E0201
S3150800049801381346A4E76046E9E7184695E767462C
S315080004A8D1E781467CE702382C4447E7ACF1020CD1
S315080004B82B442FE7384608E73746E9E6704700BF72
S315080004C872B6704762B6704708B5FFF7F9FF08BDF8
S315080004D810B500F001FA00B910BD03F087F8002836
S315080004E8FAD000F07DFB00F0BBFA03F0ABFA00F097
S315080004F8F7F920F0604020F07F00044B986000F080
S31508000508EFF94468FFF7DEFFA047E5E700ED00E0EE
S3150800051870B508E04D1C461C0B78037000F0A0FB6C
S31508000528304629462246531E9CB2002AF2D170BD8F
S3150800053838B50546002401E00134E4B2092C15D87B
S3150800054800F08EFB04EB44029300094AD358AB42E9
S31508000558F2D804EB44029100054A0A445268134447
S31508000568AB42E9D9024B0B44187A00E0FF2038BDA4
S31508000578245B000808B5C1F3080353B903688B421E
S3150800058809D040F8041B4FF40072FFF7C1FF012099
S3150800059800E0002008BD0120FCE72DE9F0410746E8
S315080005A803F0A8FB00247F2C14D83E68A30006EBAA
S315080005B803083B445D6800F053FB2A46002341467E
S315080005C8022003F0EBFB38B956F82430AB4209D1C0
S315080005D80134E8E7012400E0002403F0A3FB2046E1
S315080005E8BDE8F0810024F8E738B50D460C4B98426B
S315080005F811D004460B4B994207D1094C2946204687
S31508000608FFF7B8FF48B1204638BDFFF7C6FF0028F0
S31508000618F4D10024F7E7044CF0E70024F3E700BF19
S315080006280004002000800008FC0100202DE9F041A4
S3150800063806460C4617461D4621F4FF7828F0010899
S315080006480368B3F1FF3F07D0336843450BD13368D6
S31508000658E41A3444043415E04146FFF78BFF034691
S315080006680028F1D11FE041463046FFF7BDFF064690
S315080006780028ECD1002316E017F8013B04F8013BE3
S31508000688013D0FD000F0ECFA331DE31AB3F5007FED
S31508000698F2D308F500713046FFF7A6FF064628B1DB
S315080006A8041DE9E701231846BDE8F0810023FAE7A7
S315080006B870B586B004460D460023009388420ED8C6
S315080006C80126012C1ED90B2D20D8E6B1002301934B
S315080006D8022305930123049303F00CFB03E0002689
S315080006E8EFE70134E4B2AC4209D800F0B9FA03944A
S315080006F8694601A803F000FC0028F2D0002603F09A
S3150800070811FB00E00026304606B070BD0026FAE761
S315080007184FF0FF33024A1360024A1360704700BF5E
S31508000728FC0100200004002070B54B1E154C241A45
S31508000738A34201D9002070BD16460D460446FFF7A8
S31508000748F7FEFF281AD028190138FFF7F1FEFF2807
S3150800075816D024F4FF7323F001030B4A934206D0FC
S315080007682B46324621460948FFF760FFE3E72B4642
S31508000778324621460648FFF759FFDCE70020DAE744
S315080007880020D8E7FFFF0F0800800008FC010020BA
S31508000798000400204A1E0E4B1B1A9A4201D9002053
S315080007A8704770B50C460546FFF7C2FE064660193F
S315080007B80138FFF7BDFEFF2E06D0FF2806D00146F2
S315080007C83046FFF775FF70BD0020FCE70020FAE702
S315080007D8FFFF0F08104B1B68B3F1FF3F1AD000B58F
S315080007E883B00D4A536891680B44D1680B44116964
S315080007F80B4451690B4491690B44D26913445B4213
S3150800080802AA42F8043D04210448FFF78DFF03B005
S315080008185DF804FB01207047000400208881000861
S315080008280D4B1B680D4A12681A440D4B1B68134476
S315080008380C4A126813440C4A12681A440B4B1B6874
S315080008481A440B4B1B6813440A4A1268DA4201D049
S3150800085800207047012070470080000804800008BF
S31508000868088000080C80000810800008148000081A
S31508000878188000088881000808B50D4B1B68B3F175
S31508000888FF3F0BD10B4B1B68B3F1FF3F0DD009484F
S31508000898FFF783FE034648B1012307E00448FFF73C
S315080008A87CFE03460028EDD100E00123184608BD62
S315080008B800040020FC01002000487047008000085A
S315080008C808B5FFF725FF08BD08B5FFF72DFF08BDD2
S315080008D808B5FFF75FFF08BD08B5FFF7A1FF08BD14
S315080008E808B5FFF7E9FF08BD08B5FFF773FF034624
S315080008F808B9184608BDFFF7BFFF0346F9E7000021
S31508000908054B1B6813F0200F04D0034B5B68037074
S3150800091801207047002070470010014010B5094BA8
S31508000928586000F0C5F800F10A04064B1B6813F076
S31508000938800F05D100F094F900F0BAF8A042F4D96E
S3150800094810BD00BF0010014010B588B04FF4E13360
S31508000958019300230293039304930C2205920693AA
S315080009680793054C01A9204604F056FEE36843F4AC
S315080009780053E36008B010BD0010014070B5064684
S315080009880D46402904D82846FFF7C8FF00240BE07F
S315080009987921074800F099F8F5E700F061F9305D24
S315080009A8FFF7BCFF0134A4B2ABB2A342F5D870BDB9
S315080009B89C5B000870B5254B1C78BCB92448FFF722
S315080009C89FFF012801D0204670BD214B1B78013BAB
S315080009D8DBB23F2BF7D800F06BF81E4B18601E4B9E
S315080009E800221A70194B01221A70ECE706460D46C2
S315080009F8194B1B78013316481844FFF781FF04463C
S31508000A08012815D1144B1A780132D2B21A70104B34
S31508000A181B789A4201D00024D5E710493046FFF7DB
S31508000A2877FD0A4B00221A700B4B1B782B70CAE706
S31508000A3800F03EF8074B1B686433984203D9002434
S31508000A48024B1C70BFE70024BDE700BF450600201F
S31508000A580406002048060020460600200506002051
S31508000A68014B00221A60704710E000E008B5FFF74E
S31508000A78F7FF054B054A5A6000229A600521196056
S31508000A88034B1A6008BD00BF10E000E03F90020063
S31508000A984C060020044B1B6813F4803F03D0034A16
S31508000AA8136801331360704710E000E04C06002015
S31508000AB808B5FFF7EFFF014B186808BD4C0600207C
S31508000AC808B5FFF7F5FF08BD704708B500F0C8F880
S31508000AD8FCE7000008B500F0B7F8012806D000F0D2
S31508000AE84FF918B10C4B1B78012B00D008BDFFF73E
S31508000AF8DFFF0A4B1B680A4A1268134403F5FA73A0
S31508000B089842F3D3044B00221A7000F043F90028E0
S31508000B18ECD1FFF7DDFCE9E7540600205006002073
S31508000B285806002008B5054B1B78012B00D008BDD0
S31508000B38FFF7BEFF024B1860F9E700BF540600200E
S31508000B485806002008B5044B01221A70FFF7EAFF79
S31508000B58FFF7C0FF08BD00BF5406002008B5FFF719
S31508000B68B3FC00F079F8FFF781FFFFF7A9FE00F05C
S31508000B78EFF800F00FF8FFF7E5FF08BD08B500F035
S31508000B886FF8FFF787FF00F0FFF900F00FF8FFF797
S31508000B98A1FF08BD08B500F079FDFFF7D5FE024BA1
S31508000BA800221A7008BD00BF0000002000B583B0F7
S31508000BB80DF107010848FFF7FDFE012802D003B02A
S31508000BC85DF804FB054B00221A709DF807100248C9
S31508000BD800F07CFDF3E700BF5C060020000000205B
S31508000BE87047000008B5054B1B7813B100F066FD81
S31508000BF808BDC9B2FFF7C2FEF8E700BF000000202B
S31508000C08074B1B78022B05D0032B05D0012B05D0E3
S31508000C18402070470020704700207047082070471A
S31508000C2800000020074B1B78022B05D0032B05D0A4
S31508000C38012B05D0402070470020704700207047D8
S31508000C48082070470000002008B500F02DFD03466F
S31508000C5800B10123184608BD08B502F0D5FC08BD41
S31508000C6808B502F0D6FC08BD10B4034601310D4A92
S31508000C78A2FB0323DB08F9D100230B70094BA3FB5E
S31508000C880023DB081A4603EB83035C00031B303397
S31508000C9801F8013D1046002AF0D108465DF8044BD4
S31508000CA8704700BFCDCCCCCC00F00F03092802D979
S31508000CB803F13700704710B503F1300404F0ECFE71
S31508000CC82044437803F00303022B01D0E0B210BD99
S31508000CD8203CFBE738B505460C460009FFF7E4FF54
S31508000CE8207005F00F00FFF7DFFF60700023A37080
S31508000CF8204638BDF8B507460026354607E0203CA5
S31508000D0810E02D01EDB2AB18DDB20136F6B2012EB0
S31508000D1819D8BC5D04F0C0FE2044437803F00303E9
S31508000D28022BECD0E3B2A3F13002D2B2162A09D8C4
S31508000D38A3F13A01C9B2062907D9092AE1D9373BE5
S31508000D48DAB2DEE700252846F8BD0025FBE70000ED
S31508000D5808B50022064B1A700649074801F03CFFF9
S31508000D6800B908BD77210548FFF7AFFEF9E700BFC8
S31508000D78FC0A0020F05B0008A4060020F45B0008C3
S31508000D88034B1B780BB1002070470120704700BF42
S31508000D98FC0A002008B5FFF757FF01280ED0084BB4
S31508000DA81B780BB1002008BD02F038FC012801D0D9
S31508000DB80020F8E7024B01221A70F4E70020F2E750
S31508000DC8FC0A002038B50546047804F065FE204478
S31508000DD8437803F00303022B03D0532C03D00320D4
S31508000DE838BD203CF9E704F057FE6B78184442787A
S31508000DF812F0040F09D0312B09D0322B09D0332B26
S31508000E0801D00320ECE70220EAE70320E8E7002000
S31508000E18E6E70120E4E770B506460230FFF76AFF01
S31508000E28054684B204363046FFF764FF0544EDB23A
S31508000E38013CA4B20236012CF5D8ED43EDB2304692
S31508000E48FFF758FFA84201D0002070BD0120FCE733
S31508000E58F8B5044617460E46A1B198B12046FFF7DD
S31508000E68B1FF0546032800F087802046FFF7D3FF21
S31508000E78002800F08480012D29D04DB1022D4DD0CF
S31508000E8800257AE040F263213E48FFF71EFEE5E7B3
S31508000E98A01CFFF72FFF85B2201DFFF72BFF0002C6
S31508000EA83060A01DFFF726FF336818443060083401
S31508000EB8033D2DB2002F60D00026AE425DDA2046EB
S31508000EC8FFF718FFB85502340136B6B2F5E7A01C85
S31508000ED8FFF710FF85B2201DFFF70CFF00043060EE
S31508000EE8A01DFFF707FF336803EB0020306004F105
S31508000EF80800FFF7FFFE3368184430600A34043DDB
S31508000F082DB2002F39D00026AE4236DA2046FFF732
S31508000F18F1FEB85502340136B6B2F5E7A01CFFF75C
S31508000F28E9FE85B2201DFFF7E5FE00063060A01D24
S31508000F38FFF7E0FE336803EB0040306004F1080071
S31508000F48FFF7D8FE336803EB0020306004F10A0087
S31508000F58FFF7D0FE3368184430600C34053D2DB2CF
S31508000F685FB10026AE4208DA2046FFF7C3FEB85539
S31508000F7802340136B6B2F5E700252846F8BD4FF023
S31508000F88FF35FAE7F45B0008B54B1B78002B00F031
S31508000F98F58170B5012B05D0022B30D0032B00F054
S31508000FA8208170BDFFF78CFC02F05AFBAD4802F0B1
S31508000FB89BFBAD4802F098FB02F04EFB0122014666
S31508000FC8AA4801F035FE48B1A54B00221A70A84870
S31508000FD802F08AFB012002F079FBE2E7A54802F055
S31508000FE883FBA54802F080FBA44802F07DFBA44BCE
S31508000FF800221A605A609A4B02221A70D1E7A14C4D
S3150800100804F50C724FF480719F4802F033FA94F88D
S315080010184132002B5DD1A8B19B48002200F5C0716A
S31508001028FFF716FF0446B0F1FF3F60D0002809DD38
S31508001038934B5B68002B67D1934BD3F88021904B71
S315080010481A6058608F4BD3F84422D3F83C329A4238
S31508001058A7D10021854802F0CBF8002840F0A780E0
S31508001068874B5B6873B3834802F03EFB874802F0F8
S315080010783BFB874D824C29466068FFF7F5FD2846F5
S3150800108802F032FB834802F02FFB2946E078FFF787
S3150800109821FEA91CA078FFF71DFE291D6078FFF719
S315080010A819FEA91D2078FFF715FE284602F01CFB35
S315080010B8794802F019FB61682068FFF709FC0028DF
S315080010C800F082806B4802F00FFB654B03221A700A
S315080010D867E7634B00221A70654802F005FB022091
S315080010E802F0F4FA04F50C7002F06EF859E75C4B56
S315080010F800221A705E4802F0F7FA032002F0E6FAB0
S315080011085A4802F061F84CE75F4AD2F880115C4AFF
S3150800111812681A44914203D10344594A536091E725
S31508001128544802F0E1FA594802F0DEFA584E544D8E
S3150800113831466868FFF798FD304602F0D5FA5548F3
S3150800114802F0D2FA3146E878FFF7C4FDB11CA87850
S31508001158FFF7C0FD311D6878FFF7BCFDB11D28787B
S31508001168FFF7B8FD304602F0BFFA4B4802F0BCFA62
S3150800117869682868FFF7ACFB60B13E4802F0B4FA24
S315080011883E4802F0B1FA404BD3F880213C4B1A602E
S315080011985C6057E7324B00221A70354802F0A4FA09
S315080011A8052002F093FA314802F00EF8F9E62C4BBE
S315080011B800221A702E4802F097FA042002F086FADE
S315080011C82A4802F001F8ECE6254B00221A7028484E
S315080011D802F08AFA052002F079FA244801F0F4FFA9
S315080011E8DFE6284C04F50C724FF48071264802F0A5
S315080011F841F994F84132002B56D160B1224800F5DE
S31508001208807200F5C071FFF723FE0446B0F1FF3F70
S3150800121858D0002863DC1B4BD3F84422D3F83C3259
S315080012289A427FF4BEAE1D4802F05EFAFFF75CFBF1
S31508001238002800F096800F4802F056FA184802F07F
S3150800124853FA0A4801F0C0FF164802F04DFA044B53
S3150800125800221A7002F018FAFFF73AF9A1E600BF59
S31508001268FC0A0020385C00085C5C0008D4080020EA
S31508001278845C00088C5C0008945C0008B85C00086C
S315080012889C060020A4060020000B0020E85C000845
S31508001298840C0020F45C0008985D0008805D00084E
S315080012A89C5D0008B45D0008354B00221A70354865
S315080012B802F01AFA022002F009FA04F50C7001F095
S315080012C883FF6EE62E4B00221A702F4802F00CFA9E
S315080012D8032002F0FBF92D4801F076FF61E62C4859
S315080012E802F002FA2B4D29462046FFF7BDFC284690
S315080012F802F0FAF9284802F0F7F9284E294696F82E
S315080013088301FFF7E7FCA91C96F88201FFF7E2FCC0
S31508001318291D96F88101FFF7DDFCA91D96F88001BD
S31508001328FFF7D8FC284602F0DFF91D4802F0DCF979
S3150800133806F580722146D6F88001FFF7C5FA18B176
S31508001348184802F0D1F966E70D4B00221A701648BC
S3150800135802F0CAF9062002F0B9F90C4801F034FF80
S315080013681FE6074B00221A700F4802F0BDF907203E
S3150800137802F0ACF9054801F027FF12E6704700BFEE
S31508001388FC0A0020105D0008345D0008D408002017
S31508001398585D0008840C0020685D0008000B0020D2
S315080013A8985D00088C5C0008845C0008014B0022E4
S315080013B85A707047C40C0020034BFE22DA70187165
S315080013C80222A3F844207047C40C002010B5054C27
S315080013D800232370FFF7EAFFFF23E3700123A4F82D
S315080013E8443010BDC40C0020064BFF22DA700022D8
S315080013F81A71597859719A71DA711A720622A3F80C
S3150800140844207047C40C002008B50020FFF7D4FF15
S3150800141808BD0000074BFF22DA70074A9A640022C3
S315080014281A715A719A710722C3F807200822A3F875
S3150800143844207047C40C0020E05D0008044BFF22D6
S31508001448DA7042689A640122A3F84420704700BFFC
S31508001458C40C002008B53120FFF7AEFF08BD000010
S3150800146838B5084CFF23E370002525716571FFF729
S31508001478C7FBA071E571257265720723A4F8443085
S3150800148838BD00BFC40C002038B5FFF779FCE8B1B1
S31508001498FFF78CFF0F4C01252570FF23E3701023F7
S315080014A8237100236371FFF7ABFBA071FFF7BAFB43
S315080014B8E071FFF7B7FBC0F3072020726572A572C3
S315080014C80823A4F84430FFF7FBF938BD1020FFF7C6
S315080014D873FFFAE7C40C002038B505464478FFF7C9
S315080014E88FFB0138844210DC0A4C6A78A16C201DEF
S315080014F8FFF70EF8FF23E3706A78A36C1344A36416
S315080015086B780133A4F8443038BD2220FFF754FF1E
S31508001518FAE700BFC40C002038B504464578FFF73B
S315080015286FFB0138854211DC61680A4DA964627847
S31508001538281DFEF7EDFFFF23EB706278AB6C1344AA
S31508001548AB6463780133A5F8443038BD2220FFF729
S3150800155833FFFAE7C40C0020F8B5054617460024F9
S3150800156806E015F8013B1C44E4B2FFF779FB31465F
S315080015784E1E0029F5D13C600120F8BD10B5084C6F
S31508001588FF23E370E21D4168A06CFFF7E5FF2071B1
S3150800159800236371A3710823A4F8443010BD00BF63
S315080015A8C40C002038B505460D4B9C6CFFF728FB84
S315080015B86A1C411E2046FFF787F960B1084CFF23CD
S315080015C8E370FFF71DFB0138A36C0344A3640123EA
S315080015D8A4F8443038BD3120FFF7EEFEFAE700BF1D
S315080015E8C40C002038B504464578FFF709FB0238CD
S315080015F885420EDC114BFF22DA700122A3F844203B
S31508001608617851B9FFF770F930B93120FFF7D4FE80
S3150800161802E02220FFF7D0FE38BDA21C074B986CC3
S31508001628FFF752F928B16178044A936C0B4493641E
S31508001638F2E73120FFF7C0FEEEE700BFC40C002032
S3150800164808B54168074B986CFFF742F930B1054B66
S31508001658FF22DA700122A3F8442008BD3120FFF7DB
S31508001668ABFEFAE7C40C002008B5FEF731FF034BBA
S31508001678FF22DA700122A3F8442008BDC40C002012
S3150800168808B589B2FFF7AEFA08BD0000054B002277
S315080016981A709A6483F84320A3F844209A705A70FB
S315080016A8704700BFC40C0020034B1B780BB1012000
S315080016B870470020704700BFC40C0020024B002268
S315080016C883F84320704700BFC40C002008B5037888
S315080016D8FF2B04D0354A1278012A14D008BDFFF723
S315080016E8D3FE324B93F84330012B5AD02F4BB3F91C
S315080016F844100029F2DD1846012380F843300330E8
S31508001708FFF7BEFFEAE7C93B352B46D8DFE803F003
S315080017183345454245453F363C39454545454545A2
S315080017284545454545454545454545454545454553
S3150800173845454545454545454545241E1B214545D9
S315080017484527452A2D30FFF7C7FECAE7FFF7E4FE07
S31508001758C7E7FFF773FEC4E7FFF710FFC1E7FFF710
S3150800176859FEBEE7FFF750FEBBE7FFF73DFEB8E7B1
S31508001778FFF72CFEB5E7FFF715FFB2E7FFF732FFCD
S31508001788AFE7FFF76DFEACE7FFF75AFFA9E7FFF7E4
S315080017986BFFA6E7FFF75EFEA3E72020FFF70CFE20
S315080017A89FE71020FFF708FEA0E700BFC40C00203B
S315080017B84278007840EA02207047C278837843EA7C
S315080017C80222437843EA0223007840EA0320704756
S315080017D80170090A417070470170C1F30723437005
S315080017E8C1F307438370090EC170704713462AB1BF
S315080017F80A78027001300131013BF9D1704701704E
S315080018080130013AFBD1704730B4451C0378087893
S315080018181B1A013A04D04C1C28462146002BF4D042
S31508001828184630BC704700E0013003780BB18B428C
S31508001838FAD11846704702394369023B8B4204D9E4
S315080018484389806A01FB030070470020704770B51A
S3150800185806460D4601F11A00FFF7AAFF3378032B4F
S3150800186800D070BD044605F11400FFF7A1FF44EA4D
S315080018780040F6E770B506460C46154691B204F1DF
S315080018881A00FFF7A5FF3378032B00D070BD290C83
S3150800189804F11400FFF79CFFF8E700002DE9F04172
S315080018A807460E4601F11A00FFF782FF60BB357836
S315080018B805F03F05013D05EB450305EB83054FF0AC
S315080018C80108002404E04FF6FF73984221D1013439
S315080018D80C2C0ED8124B185D3044FFF769FFB8F187
S315080018E8000FF0D0FE2D12D827F8150080460135CE
S315080018F8EDE7337813F0400F0DD0FE2D0DD80023F1
S3150800190827F81530012000E00020BDE8F081002006
S31508001918FBE70020F9E70120F7E70020F5E700BF15
S31508001928685E00082DE9F84380460F4691464B73D2
S315080019380F23CB7200240C73214607F11A00FFF710
S3150800194847FF09F1FF3606EB460306EB83062546ED
S3150800195802E001340C2C11D84FF6FF739D4202D0D1
S3150800196838F8165001360C4B185D29463844FFF7E7
S315080019782FFF002DEDD14FF6FF75EAE74FF6FF73F7
S315080019889D4202D038F816300BB949F0400987F855
S315080019980090BDE8F88300BF685E000870B582B09D
S315080019A8054616461C460B22FFF720FF052C11D8BC
S315080019B807221DE001320F2A0CD803F0010101EBBA
S315080019C844045B0814F4803FF4D084F4883484F023
S315080019D82104EFE73388002BEAD002360022EAE72B
S315080019E8531E02A8024402F8081C240909D01A46FC
S315080019F804F00F0303F130013929F1D903F137014E
S31508001A08EEE77E2102461A4402F8081C00E0013473
S31508001A189C4209D22A5D202AF9D105E02021621CB8
S31508001A282955072A08D81446072BF7D802AA1A44AC
S31508001A3812F8081C0133F2E702B070BD01460B2202
S31508001A480020C30143EA5003087850FA83F3D8B252
S31508001A580131013AF5D17047016809B10A4603E030
S31508001A684FF0FF3308E0013213781F2B01D93A2BC0
S31508001A78F9D13A2B02D000231846704710B44C1CEB
S31508001A880B78303B092B08D8A24209D15BB9013239
S31508001A98026018465DF8044B70474FF0FF33F8E7C5
S31508001AA84FF0FF33F5E74FF0FF33F2E738B50D4649
S31508001AB840B1044603682BB11A781AB1D9888288C6
S31508001AC8914203D000232B60092038BD587803F0CB
S31508001AD825FF10F0010FF5D123682B600020F4E7E5
S31508001AE8F8B5C3780BB90020F8BD0446C56A00F1F5
S31508001AF8300701232A463946407803F019FFA8B962
S31508001B080023E370236AEB1AA269934210D2A678D7
S31508001B18012E09D9A3691D4401232A463946607846
S31508001B2803F006FF013EF3E70020DDE70120DBE7C7
S31508001B380020D9E770B5C36A8B4212D004460D4611
S31508001B48FFF7CEFF064668B901232A4604F1300195
S31508001B58607803F0E8FE10B101264FF0FF35E5621C
S31508001B6800E00026304670BD10B504460023C37051
S31508001B784FF0FF33C362FFF7DDFFD8B904F22E2012
S31508001B88FFF716FE4AF65523984215D104F1660062
S31508001B98FFF713FE20F07F400A4B98420ED004F157
S31508001BA88200FFF70AFE20F07F40064B984207D1CD
S31508001BB8002002E0042000E0032010BD0020FCE716
S31508001BC80220FAE7464154002DE9F04784B00F464B
S31508001BD8164600230B60FFF73FFF051EC0F241813A
S31508001BE8B54B53F82540002C00F03F813C6006F0C1
S31508001BF8FE06237873B1607803F090FE10F0010FA3
S31508001C0808D1002E00F0338110F0040F40F031811E
S31508001C18002027E100232370E8B2607003F06EFE07
S31508001C2810F0010F40F027811EB110F0040F40F0A4
S31508001C38248100212046FFF797FF022800F0B38089
S31508001C480026042800F01B81012800F21A8104F1F5
S31508001C583B00FFF7ADFDB0F5007F40F0148104F1B5
S31508001C684600FFF7A5FD074620B904F15400FFF71B
S31508001C78A4FD0746A76194F84020A270531EDBB25C
S31508001C88012B00F2028107FB02F594F83D80A4F8BF
S31508001C980A80B8F1000F00F0FA8008F1FF3318EA55
S31508001CA8030F40F0F68004F14100FFF781FD8246F4
S31508001CB8208110F00F0F40F0EE8004F14300FFF783
S31508001CC877FD814620B904F15000FFF776FD814675
S31508001CD804F13E00FFF76CFD0146002800F0DD80A0
S31508001CE8421902EB1A129145C0F0D980A9EB0203F2
S31508001CF8B3FBF8F3002B00F0D48040F6F570834266
S31508001D0869D84FF001094FF6F570834201D94FF0AB
S31508001D18030903F10208C4F81480E6618B192362E3
S31508001D283244A262B9F1030F58D0BAF1000F00F095
S31508001D38BE802B446362B9F1020F60D008EB4802F3
S31508001D4808F0010303EB520303F2FF13B7EB532F13
S31508001D58C0F0AF804FF0FF332361E360802323711F
S31508001D68B9F1030F4ED084F80090544A138801330A
S31508001D789BB21380E380002074E0002004AB03EBD9
S31508001D88850343F8100C0135032D0ED804F13000ED
S31508001D982B0103F5DF7318440379002BEDD00830BF
S31508001DA8FFF70BFDEAE70025EEE700250AE03146CE
S31508001DB82046FFF7D9FE01287FF643AF0135032DE4
S31508001DC83FF63FAF04AB03EB850353F8106C002EC0
S31508001DD8EDD10320F2E74FF0020994E704F15A001F
S31508001DE8FFF7E6FC00285ED1BAF1000F5DD104F1D1
S31508001DF85C00FFF7E2FC60624FEA8803A4E74FEA53
S31508001E084803A1E704F16000FFF7D2FC0128AAD12C
S31508001E18711C2046FFF78EFE0028A4D100232371E3
S31508001E2804F22E20FFF7C4FC4AF6552398429AD1A5
S31508001E3804F13000FFF7C1FC214B984293D104F511
S31508001E480570FFF7BAFC1F4B98428CD104F506704B
S31508001E58FFF7B3FC206104F50770FFF7AEFCE060F6
S31508001E6881E70B2004B0BDE8F0870C20FAE70020CC
S31508001E78F8E70A20F6E70320F4E70A20F2E7012044
S31508001E88F0E70D20EEE70D20ECE70D20EAE70D2038
S31508001E98E8E70D20E6E70D20E4E70D20E2E70D2048
S31508001EA8E0E70D20DEE70D20DCE70D20DAE70D2058
S31508001EB8D8E70D20D6E700BF100D0020140D002026
S31508001EC85252614172724161F8B50668012952D9C0
S31508001ED873698B4251D90C463378022B2BD0032BC6
S31508001EE838D0012B01D0012046E001EB5105316AB3
S31508001EF801EB55213046FFF71DFE00283FD16F1C20
S31508001F08C5F30805354495F83050316A01EB572171
S31508001F183046FFF70FFEA8BBC7F308073E4496F8F6
S31508001F28300045EA002014F0010F01D0000923E02B
S31508001F38C0F30B0020E0316A01EB14213046FFF7A5
S31508001F48F9FD10BB600000F4FF7030303044FFF72D
S31508001F582FFC11E0316A01EBD4113046FFF7EAFD90
S31508001F68B0B9A00000F4FE7030303044FFF725FC05
S31508001F7820F0704000E00120F8BD0120FCE74FF092
S31508001F88FF30F9E74FF0FF30F6E74FF0FF30F3E799
S31508001F984FF0FF30F0E72DE9F0410768B1F5001F6B
S31508001FA83BD206460D4611F01F0F39D131618468B8
S31508001FB81CB93B78022B00D97C6A94B93B89B3EBE8
S31508001FC8551F2FD97B6AB3617461B36993B303EB61
S31508001FD85523B3613037C5F308053D44F56100203C
S31508001FE81CE0B7F80A804FEA482845450FD321462A
S31508001FF83046FFF769FF0446B0F1FF3F14D00128C1
S3150800200814D97B69834213D9A5EB0805EDE7214660
S315080020183846FFF710FCB061D6E70220BDE8F08124
S315080020280220FBE70220F9E70120F7E70220F5E797
S315080020380220F3E70220F1E72DE9F84301297CD9C4
S3150800204843698B427BD916460C4605460378022B0C
S3150800205847D0032B57D0012B01D0022770E001EB9C
S315080020685108016A01EB5821FFF764FD0746002865
S3150800207866D108F10109C8F3080814F0010423D049
S3150800208805EB080393F9303003F00F03320102F425
S315080020987F621343DBB2A84488F830300123EB701B
S315080020A8296A01EB59212846FFF744FD0746002807
S315080020B846D1C9F308094CB1C6F30712A94489F8E9
S315080020C830200123EB703BE0F3B2E4E705EB0903A4
S315080020D893F9302022F00F02C6F303263243D2B210
S315080020E8ECE7016A01EB1421FFF724FD074638BB24
S315080020F8600000F4FF703030B1B22844FFF768FB7F
S315080021080123EB701CE0016A01EBD411FFF712FDFD
S315080021180746A8B926F07046A40004F4FE743034BD
S315080021282C442046FFF749FB00F07041314320460E
S31508002138FFF752FB0123EB7002E0022700E00227B3
S315080021483846BDE8F8832DE9F0410746066888460B
S3150800215831B9F5688DB17369AB420FD801250DE021
S31508002168FFF7B2FE0346012847D9B0F1FF3F49D029
S315080021787269824246D8454600E001252C460CE09D
S3150800218821463846FFF7A0FE034670B1012839D024
S31508002198B0F1FF3F36D0AC4233D001347369A3425D
S315080021A8EED8012D2BD90224EAE74FF0FF32214653
S315080021B83046FFF741FF034610B9B8F1000F0ED1B4
S315080021C8A3B9F46032697369023B9A4201D2013AAB
S315080021D83261337943F001033371234612E022460C
S315080021E841463046FFF728FF0346E9E7012B01D0A9
S315080021F8012307E04FF0FF3304E0012302E0002340
S3150800220800E000231846BDE8F081F8B50E460468D4
S3150800221801292ED9074611466369B3422BD95AB103
S315080022284FF0FF322046FFF707FF024620B123E0AA
S3150800223863692E46AB421FD931463846FFF744FE36
S315080022480546D8B101281BD0B0F1FF3F1AD00022A5
S3150800225831462046FFF7F0FE024668B92369B3F10E
S31508002268FF3FE5D001332361237943F00103237146
S31508002278DEE7022200E002221046F8BD0022FBE74C
S315080022880222F9E70122F7E72DE9F8430668056906
S315080022988369002B6DD02035B5F5001F6BD28846AB
S315080022A80446C5F308073FB901338361416971B923
S315080022B83389B3EB551F06D9256130373E44E661A5
S315080022C80020BDE8F883002383610420F9E77389B1
S315080022D8013B13EA5523EFD1FFF7F6FD814601289E
S315080022E84BD9B0F1FF3F4AD07369834239D8B8F160
S315080022F8000F11D061692046FFF725FF814600289F
S315080023083FD001283FD0B0F1FF3F3ED03046FFF717
S31508002318E7FB28B10120D4E70023A3610420D0E70E
S315080023284FF40072002106F13000FFF768FA4946B3
S315080023383046FFF780FAF0624FF00008738998452F
S315080023480BD20123F3703046FFF7CAFBF8B908F138
S315080023580108F36A0133F362F0E7F36AA3EB0803AB
S31508002368F362C4F8149049463046FFF764FAA06148
S31508002378A2E70420A5E70420A3E70220A1E7012095
S315080023889FE707209DE702209BE7012099E70120A0
S3150800239897E7F8B504460F4606680021FFF7FBFDE0
S315080023A80346C0B9002508E00135BD4213D001210E
S315080023B82046FFF769FF034668B9A1693046FFF763
S315080023C8B9FB034638B9E2691278E52AECD0002A3F
S315080023D8EAD00025EBE7042B01D01846F8BD0723F9
S315080023E8FBE72DE9F8430446884607684FF0FF09D6
S315080023F84E4604252EE00F2B19D112F0400F06D0B1
S3150800240891F80D9002F0BF02236963621646B2423C
S3150800241801D0FF2618E04B7B4B4501D0FF2613E079
S31508002428A06AFFF73BFA88B3013EF6B20CE026B974
S315080024380846FFF703FB48452BD04FF0FF33636286
S3150800244827E0FF2600E0FF2600212046FFF71CFFAD
S315080024580546F0B9A169E1B13846FFF76BFB0546B1
S31508002468B8B9E1690A789AB1CB7A03F03F03A37140
S31508002478E52AE6D02E2AE6D023F02000082814BF3D
S31508002488002001204045B6D0FF26DDE7FF26DBE71A
S3150800249804250DB10023A3612846BDE8F88370B565
S315080024A8044605680669416AB1F1FF3F18D1A16972
S315080024B82846FFF73FFB034670B9E269E521117024
S315080024C80122EA702269B24206D200212046FFF7A5
S315080024D8DBFE03460028EAD0042B07D0184670BD51
S315080024E8FFF759FD03460028E1D0F7E70223F5E789
S315080024F82DE9F04F83B080468A46D1F80090856A60
S31508002508002411E0013609EB060219F806302F2BCC
S31508002518F8D05C2BF6D0CAF800201F2821D8042743
S3150800252822E025F814703446661C19F804001F289A
S31508002538E9D92F28E7D05C28E5D0FE2C00F2DF8001
S31508002548012100F0E9FF0746002800F0DA807F2815
S31508002558E7D801466D48FFF766F90028E1D0062056
S3150800256886E0002700E0013C44B104F10043013B42
S3150800257835F81330202BF6D02E2BF4D0002325F867
S315080025881430002C00F0BF800B222021D8F8200038
S31508002598FFF735F9002300E0013335F81320202A20
S315080025A8FAD02E2AF8D01BB147F0030700E0013C01
S315080025B86CB104F10042013A35F812202E2AF6D1F8
S315080025C84FF0080B4FF0000ACDF804A00AE0A2461F
S315080025D84FF0080B0022019204E04C450BD047F057
S315080025E803074B4603F1010935F81360FEB1202E9F
S315080025F8F5D02E2EF1D0DA4510D24C450ED07F2EC6
S3150800260846D8002E51D147F003075F26D8F8203060
S3150800261803F80A604B460AF1010AE3E7BBF10B0F18
S3150800262829D04C4501D047F003074C4526D2D8F89F
S3150800263820301A78E52A54D0BBF1080F54D0019BEC
S3150800264803F00C020C2A03D003F00303032B01D171
S3150800265847F0020717F0020F06D1019B03F00303A0
S31508002668012B46D0042A47D0D8F82030DF7200203C
S3150800267803B0BDE8F08F47F00307D8E7019B9B0036
S31508002688DBB2019323464FF00B0B4FF0080AA9E774
S315080026980021304600F040FF064618B1A0F1800632
S315080026A81B4B9E5D47F00207ABE731461948FFF713
S315080026B8BAF80028A7D1A6F141039BB2192B04D86A
S315080026C8019B43F002030193A0E7A6F161039BB2BD
S315080026D8192B9BD8019B43F001030193203EB6B200
S315080026E894E705221A70A7E7019B9B00DBB20193C2
S315080026F8A5E747F01007B5E747F00807B4E7062047
S31508002708B6E70620B4E70620B2E700BF785E0008F9
S31508002718E85D0008845E0008F8B500238B758369B0
S31508002728002B6BD00D460646436AB3F1FF3F13D01C
S31508002738836A00249F1C188858B1002100F0ECFE13
S3150800274830B1FE2C0CD82A1990753B460134F1E7AE
S3150800275800242C440023A375A87D0022134612E002
S315080027680024F6E7E52317E010B9A9182E278F7570
S31508002778A9182E274F72013210E010211CE0A9185B
S315080027888B75013223460A2B1BD8F1695C1CCB5C76
S31508002798202BF7D0052BE5D0092CE5D0A9184B72C4
S315080027A80028EED1A3F14101C9B21929E7D8F16980
S315080027B80F7B082CE1D808210F42E0D02033DBB282
S315080027C8DDE730B9AB1800219975F3691B7B03B9A6
S315080027D80A462A4400235372F369DB7A2B72F06996
S315080027E81C30FEF7EAFF2860F0691830FEF7E0FFAC
S315080027F8A880F0691630FEF7DBFFE880F8BD000010
S315080028082DE9F04781460F4601F11A00FEF7D0FF79
S31508002818B8BB3D7805F03F05013D05EB450305EBDB
S3150800282883054FF00108002404E04FF6FF73984229
S315080028382ED101340C2C18D8194B185D3844FEF7DC
S31508002848B7FF0646B8F1000FEFD0FE2D1CD800F0EA
S315080028587FFE804605F1010A39F8150000F078FE72
S31508002868804513D1B0465546E3E73B7813F0400F49
S3150800287810D0B8F1000F0FD039F8153073B9012008
S3150800288800E00020BDE8F0870020FBE70020F9E714
S315080028980020F7E70120F5E70120F3E70020F1E734
S315080028A8685E00082DE9F8430446D0F80080002140
S315080028B8FFF771FB064600285ED14FF0FF336362C7
S315080028C84FF0FF094F460AE04FF0FF336362FF27D0
S315080028D800212046FFF7D8FC064600284CD1A169F6
S315080028E84046FFF727F90646002845D1E5692B78BB
S315080028F8002B40D0E97A01F03F02A271E52BE3D01C
S3150800290811F0080F01D00F2ADED10F2A14D027B9E3
S315080029182846FFF793F848452ED0216ACB7A13F054
S31508002928010F04D10B222846FEF76EFF20B34FF09D
S31508002938FF336362FF27CBE7A06A0028C8D013F0E5
S31508002948400F06D095F80D9003F0BF03226962621E
S315080029581F46BB4201D0FF27BAE76B7B4B4501D020
S31508002968FF27B5E72946FFF74BFF10B1013FFFB22E
S31508002978AEE7FF27ACE704263046BDE8F88330B54E
S3150800298883B004460191056801E001330193019B70
S315080029981A782F2AF9D05C2AF7D00022A2601B7869
S315080029A81F2B1DD901A92046FFF7A2FD0346F8B932
S315080029B82046FFF777FF236ADA7A0346D8B912F072
S315080029C8040F15D1A37913F0100F1BD02169C1F391
S315080029D80801303129442846FEF739FFA060E1E7A7
S315080029E8236A8022DA7200212046FFF7D4FA0346C2
S315080029F8184603B030BD0428FAD112F0040FF7D1EF
S31508002A080523F5E70523F3E72DE9F04784B00668BB
S31508002A18D0F820A0D0F828809AF80B3013F0A00F29
S31508002A2840F08980002400E0013438F81430002B7F
S31508002A38FAD105460C22514601A8FEF7D7FE9DF89D
S31508002A480F3013F0010F1ED000238AF80B30AB6243
S31508002A580127632F0CD83B46424601A95046FEF784
S31508002A689DFF2846FFF71EFF814608B90137F0E79C
S31508002A78642F66D0B9F1040F5FD19DF80F308AF834
S31508002A880B30C5F828809DF80F3013F0020F2AD0AE
S31508002A980C342D4BA3FB0434A408013421462846DC
S31508002AA8FFF777FC814608B9013C1ED1B9F1000F3A
S31508002AB843D1A9693046FFF73DF8814600283CD13D
S31508002AC820220021E869FEF79AFE0B22296AE8699E
S31508002AD8FEF78CFE2B6ADB7AEA6903F01803137390
S31508002AE80123F37029E00124D8E72969A1EB4411E9
S31508002AF82846FFF750FA81460028D7D1286AFEF7F4
S31508002B089DFF0746A9693046FFF714F8814600284D
S31508002B18CCD13B46E2B2E969A86AFEF703FF01236E
S31508002B28F37000212846FFF7AFFB81460028BDD180
S31508002B38013CE7D1BAE74FF00609484604B0BDE8B4
S31508002B48F0874FF00709F8E74FECC44E70B504460E
S31508002B58FEF7C6FF054648B92378032B08D0002296
S31508002B681146607802F0E9FE00B10125284670BDD5
S31508002B782379012BF3D104F130064FF400720021B2
S31508002B883046FEF73CFE4AF6552104F22E20FEF79B
S31508002B981FFE0F493046FEF71FFE0E4904F505705D
S31508002BA8FEF71AFE216904F50670FEF715FEE168B8
S31508002BB804F50770FEF710FEE2690132E2620123A6
S31508002BC83146607802F0B4FE00232371C7E700BFD8
S31508002BD8525261417272416110B584B001900091F8
S31508002BE8144604A840F8041DFEF736FF002819DB2A
S31508002BF80E4B53F820300BB100221A70019B0BB10B
S31508002C0800221A70019B094A42F8203063B1012C48
S31508002C1802D0002004B010BD002201A96846FEF7BC
S31508002C28D3FFF7E70B20F5E70020F3E7100D0020A0
S31508002C382DE9F04393B00191002800F0AF800446CF
S31508002C4815460023036002F01F073A4606A901A89D
S31508002C58FEF7BAFF064618B1304613B0BDE8F0834A
S31508002C68069B079303AB0F934D4B1193019907A83E
S31508002C78FFF785FE064620B90F9B93F90B30002B04
S31508002C8846DB15F01C0F54D0002E48D0042E41D030
S31508002C9847F00807002E5BD117F0080F58D0414DAA
S31508002CA829460E980E30FEF797FD29460E981630D7
S31508002CB8FEF792FD0E9B2022DA72069DDDF8388013
S31508002CC841462846FEF7C3FD814600224146284666
S31508002CD8FEF7D0FD00210E981C30FEF77DFD069BF9
S31508002CE80122DA70B9F1000F32D0069BDD6A00229C
S31508002CF8494607A8FFF789FA064648BB29460698AB
S31508002D08FEF718FF064609F1FF33069AD3601FE057
S31508002D180626B6E707A8FFF777FE0646B8E79DF83A
S31508002D28223013F0110F12D115F0040FB2D008266D
S31508002D380EE06EB99DF8223013F0100F2CD115F05D
S31508002D48020F05D013F0010F02D007260BE007265D
S31508002D584EB917F0080F01D047F02007069BDB6A23
S31508002D6823620E9B6362002E7FF476AF069DDDF81C
S31508002D78388041462846FEF76AFDA06008F11C001F
S31508002D88FEF71BFDE060002363746361E361277443
S31508002D982560EB88A3805FE70426E4E709265BE756
S31508002DA8180D0020000061482DE9F04F85B004464B
S31508002DB88946174698460023C8F8003003A9FEF73F
S31508002DC875FE0646002840F0A280667C002E40F074
S31508002DD89E80237C13F0010F00F0A380E5686369E1
S31508002DE8ED1ABD425DD33D465BE0A1692046FFF773
S31508002DF86BF866E00226667489E00126667486E042
S31508002E080226667483E0237C13F0400F05D0E06938
S31508002E18A0EB0A00019B984202D3019B5F0236E0A9
S31508002E284FF4007204F1280109EB4020FEF7DEFC96
S31508002E38F3E7E26952451AD0237C13F0400F0CD009
S31508002E48012304F128019BF8010002F071FD00280E
S31508002E5861D1237C23F0400323740123524604F1ED
S31508002E6828010398407802F05EFD002856D1C4F878
S31508002E781CA06169C1F30801C1F50077BD4200D2FB
S31508002E882F4628313A4621444846FEF7AFFCB9444E
S31508002E9863693B446361D8F800303B44C8F800309E
S31508002EA8ED1B002D33D06369C3F30802002AE0D16D
S31508002EB8039A5789013F17EA532708D1002B94D15B
S31508002EC8A068012896D9B0F1FF3F96D0A061DDF831
S31508002ED80CB0A1695846FEF7AEFC824600288FD08A
S31508002EE8BA446B0A0193A4D0FB18BBF80A2093428C
S31508002EF801D9D31B0193019B524649469BF8010009
S31508002F0802F011FD00283FF47EAF012666743046AC
S31508002F1805B0BDE8F08F01266674F8E701266674E1
S31508002F28F5E70726F3E72DE9F04F85B00446884606
S31508002F38154699460023C9F8003003A9FEF7B6FDD9
S31508002F480746002840F0B280677C002F40F0AE8024
S31508002F58237C13F0020F00F0BF806369EB4264D349
S31508002F68DD4362E000212046FFF7EDF86FE0A1692E
S31508002F782046FFF7E8F86AE00227677496E0012713
S31508002F88677493E00123E26904F1280103984078FD
S31508002F9802F0CEFC20B9237C23F04003237465E0B5
S31508002FA80127677482E0022767747FE0E169A1EB6D
S31508002FB80A01594502D34FEA4B2627E04FF4007217
S31508002FC808EB412104F12800FEF710FC237C23F0C6
S31508002FD840032374EFE7E369534503D06269E3685E
S31508002FE89A4267D3C4F81CA06069C0F30800C0F504
S31508002FF80076B54200D22E4628303246414620444D
S31508003008FEF7F4FB237C43F040032374B04463695A
S3150800301833446361E268934238BF1346E360D9F8DC
S3150800302800303344C9F80030AD1B002D4FD0636912
S31508003038C3F30802002AD7D1039A5689013E16EA2D
S3150800304853260FD1002B92D1A06800288AD00028D1
S315080030583DD0012890D0B0F1FF3F90D0A061A36879
S3150800306803B9A060237C13F0400F8BD1039B01930F
S31508003078A1691846FEF7DFFB8246002893D0B244BA
S315080030885FEA552BA7D006EB0B03019A52899342A0
S3150800309801D9A2EB060B5B46524641460198407891
S315080030A802F046FC002881D001276774384605B027
S315080030B8BDE8F08F0123524604F1280101984078AB
S315080030C802F031FC00288DD001276774EEE7237CCF
S315080030D843F020032374E9E70727E7E770B582B0CA
S315080030E804460D460A290DD06368002B08DB5E1CCA
S315080030F823441D733C2E09DC6660A3680133A3606C
S3150800310802B070BD0D21FFF7E9FFEDE701AB3246C6
S3150800311804F10C012068FFF706FF019B9E4202D0C6
S315080031284FF0FF36E8E70026E6E7000030B583B03B
S31508003138044601A9FEF7BAFC0346C8B9227C12F070
S31508003148200F15D012F0400F0CD00123E26904F1C4
S3150800315828010198407802F0EBFB88BB237C23F012
S3150800316840032374216A0198FEF7E4FC034610B16C
S31508003178184603B030BD656AEB7A43F02003EB7254
S31508003188A26829462068FEF775FBE16805F11C0068
S31508003198FEF722FB0B4905F11600FEF71DFB002179
S315080031A805F11200FEF714FB019B0122DA7001985B
S315080031B8FFF7CCFC0346227C22F020022274D7E7CC
S315080031C80123D5E70000614810B582B00446FFF729
S315080031D8ADFF034610B1184602B010BD01A9204636
S315080031E8FEF764FC03460028F5D100222260F2E7C0
S315080031F82DE9F04182B004460F4601A9FEF756FCB0
S315080032080646002840F0A280667C002E40F09E8084
S31508003218E368BB4204D2227C12F0020F00D11F4693
S31508003228636900226261002F65D0019AB2F80A80A4
S315080032384FEA482873B17A1EB2FBF8F2013BB3FB92
S31508003248F8F18A4206D3C8F1000213406361FF1AEF
S31508003258A56902E0A56815B1A56135BB4CE0002152
S315080032682046FEF770FF0546012804D0B0F1FF3F57
S3150800327804D0A060F0E70226667467E00126667443
S3150800328864E029462046FEF71FFE0546B5F1FF3FCE
S3150800329828D0012D29D9019B5B69AB4225D9A5619F
S315080032A8636943446361A7EB080747450BD9237C41
S315080032B813F0020FE5D029462046FEF744FF0546D7
S315080032C80028E3D1474663693B446361C7F30803AB
S315080032D8002B3FD029460198FEF7ADFA40B100EB1E
S315080032E8572509E00126667430E0022666742DE043
S315080032F8022666742AE000256369C3F30803E3B166
S31508003308E269AA4219D0237C13F0400F0BD0012397
S3150800331804F128010198407802F00AFBE0B9237CF9
S3150800332823F04003237401232A4604F1280101984F
S31508003338407802F0F8FA90B9E5616369E268934261
S3150800334804D9E360237C43F020032374304602B093
S31508003358BDE8F0810025CFE701266674F6E7012661
S315080033686674F3E730B591B001900D46002205A9B9
S3150800337801A8FEF729FC044610B1204611B030BD55
S3150800338802AB0D930B4B0F93019905A8FFF7F7FAB4
S3150800339804460028F1D10D9B93F90B30002B06DB68
S315080033A8002DEAD0294605A8FFF7B6F9E5E7062469
S315080033B8E3E700BF180D0020F0B59DB00190022282
S315080033C805A901A8FEF700FC059B1193044610B150
S315080033D820461DB0F0BD02AB1993254B1B930199E6
S315080033E811A8FFF7CCFA04460028F1D1199B93F9DE
S315080033F80B30002B1EDB9DF84A5015F0010F2AD119
S31508003408059F18993846FEF722FA064615F0100F52
S3150800341812D006970890002106A8FEF7BCFD0446B8
S3150800342850B9002106A8FEF7DCFF0446B0B1042807
S3150800343802D103E000260624002CC9D111A8FFF7FB
S315080034482EF8044600B95EB9002CC1D10598FFF7D5
S315080034587DFB0446BCE700260724EDE70724EBE7CF
S315080034680022314611A8FEF7D0FE0446ECE700BF55
S31508003478180D00202DE9F04182B080460E46174601
S315080034880446002501E022461446731EAB4212DDA7
S315080034986B46012201A93846FFF786FC009B012BDB
S315080034A809D19DF804300D2BEDD0621C2370013527
S315080034B80A2BE9D11446002323701DB1404602B0F1
S315080034C8BDE8F0810020FAE710B594B004460191EA
S315080034D800230293039303E0013401A8FFF7FEFDD6
S315080034E821780029F8D1029A002A0CDB6B4604A930
S315080034F80198FFF718FD48B9029A009B9A4208D125
S31508003508039814B010BD4FF0FF30FAE74FF0FF30BC
S31508003518F7E74FF0FF30F4E77F2816D931B1FF28CF
S3150800352812D88038094B33F81000704700237F2BD0
S3150800353807D8064A32F81320824202D001339BB2D2
S31508003548F5E78033D8B27047002070478C5E0008CC
S31508003558B0F5805F07D2234B1A88002A40D09042DC
S315080035683ED3F0B406E0204BF6E72B461A88CAB1D4
S31508003578904217D31D1D5B88190ADBB29C18A04216
S3150800358804DB0029F1D105EB4303EFE7082909D83D
S31508003598DFE801F0050A101316191C1F2200861AFF
S315080035A835F81600F0BC7047821A02F00103C01AF3
S315080035B880B2F7E7103880B2F4E7203880B2F1E72E
S315080035C8303880B2EEE71A3880B2EBE7083080B2B6
S315080035D8E8E7503880B2E5E7A0F5E35080B2E1E7BE
S315080035E8704700BF8C5F00088061000808B5054B66
S315080035F81B6913F0020F01D1002008BD00F0D2F8AC
S315080036080120FAE70004024008B5642000F09AF899
S3150800361808BD08B500F09CF808BD000000B5C7B09D
S315080036284FF48C720021684602F056FA6946094832
S31508003638FFF798FE40B9009B53B19DF8083013F080
S31508003648100F02D1012000E0002047B05DF804FB06
S315080036580020FAE74C620008004870474C620008E8
S3150800366808B50748002380F828320A220549FFF7D3
S31508003678DFFA18B9024B012283F8282208BD00BFD1
S31508003688180F00203C62000810B50D4B93F8283235
S31508003698012B10D0FDF70CFA00F16404094B1B68DE
S315080036A813F0400F03D1FDF703FAA042F6D90648EE
S315080036B8FFF782FE10BD0248FFF786FDEAE700BF5E
S315080036C8180F0020001401404C62000808B5054B85
S315080036D893F82832012B00D008BD0248FFF774FD7D
S315080036E8FAE700BF180F002038B50546134B93F8BC
S315080036F82832012B0CD11149FFF7E6FE002807DA14
S315080037080E48002380F82832FFF75EFD00E00135F1
S315080037182B788BB10A4A5360FDF7CAF900F10A04F7
S31508003728074B1B6813F0800FF1D1FDF799FAFDF7DF
S31508003738BFF9A042F4D9EAE738BD00BF180F002040
S3150800374800140140014B1880704700BF441100203F
S3150800375808B5FDF7ADF90F4B1B68984210D30E4B09
S315080037681B7873B90C4B01221A700C4B4FF0805218
S315080037789A61FDF79DF90A4B1B881844054B186092
S3150800378808BD054B00221A70044B4FF480529A6103
S31508003798EFE700BF4811002046110020000C024040
S315080037A844110020024B4FF480529A61704700BFBB
S315080037B8000C024008B52B4A136823F00F0343F0A0
S315080037C805031360136803F00F03052B44D1264A33
S315080037D8136843F48043136002F5E432136843F42C
S315080037E880331360214B1B6813F4003FFAD01F4B34
S315080037F85A681F4911401F4A0A435A605A6822F4F0
S3150800380840325A601A6842F080721A60174B1B6871
S3150800381813F0007FFAD0154B9A6822F0F0029A60E6
S315080038289A6822F4E05242F4A0529A609A6822F4FE
S31508003838604242F400429A609A6822F0030242F013
S3150800384802029A60094B9B6803F00C03082BF9D10E
S31508003858094801F0ABFF08BD6B210848FDF735F9A3
S31508003868B5E700BF003C024000700040003802403F
S315080038780080BFFF08544000007A030A5C6200080B
S3150800388808B500F01BF9FFF795FF08BD08B5FFF75F
S31508003898F7FFFDF763F9FDF771F9FCE770B58EB028
S315080038A8334B5A6C42F480425A645A6C02F480428A
S315080038B80792079A1A6C42F080521A641A6C02F038
S315080038C880520692069A1A6B42F001021A631A6B1C
S315080038D802F001020592059A1A6B42F002021A636F
S315080038E81A6B02F002020492049A1A6B42F0040256
S315080038F81A631A6B02F004020392039A1A6B42F0CF
S3150800390808021A631A6B02F008020292029A5A6CA3
S3150800391842F010025A645B6C03F010030193019B92
S315080039284FF4805608960123099300240A940B94A9
S315080039380C94104D08A9284601F086F9AE610225AF
S31508003948089509940C9408A90B4801F07DF94FF4D9
S31508003958C0630893099503230A930B940C940723C9
S315080039680D9308A9054801F06FF90EB070BD00BFA0
S3150800397800380240000C02400004024000000240E1
S3150800398808B501F0F7F9154801F0C2F8144801F02E
S31508003998BFF8144801F0BCF8134801F0B9F8134BFE
S315080039A85A6C22F010025A641A6B22F004021A633F
S315080039B81A6B22F002021A631A6B22F001021A63C2
S315080039C81A6B22F008021A631A6C22F080521A64DB
S315080039D85A6C22F480425A6408BD00BF00000240AF
S315080039E80004024000080240000C02400038024069
S315080039F8DFF834D0002103E00C4B5B584350043100
S31508003A080B480C4B42189A42F6D30B4A02E000239D
S31508003A1842F8043B094B9A42F9D302F00BF802F034
S31508003A2817F8FFF733FF7047000002209C63000869
S31508003A3800000020E0010020E0010020F411002029
S31508003A48FEE7000010B5094B4FF0FF321A62002452
S31508003A581C625A625C621A611C615A615C619A61ED
S31508003A689C61FFF78DFF204610BD00BF0038024055
S31508003A7810B504460E4B18784FF47A73B3FBF0F377
S31508003A880C4A1068B0FBF3F000F08CF868B90F2CF4
S31508003A9801D901200AE0002221464FF0FF3000F044
S31508003AA84DF8054B1C60002000E0012010BD00BF42
S31508003AB8010000200C0000200400002008B50B4B6C
S31508003AC81A6842F400721A601A6842F480621A6028
S31508003AD81A6842F480721A60032000F01DF8002064
S31508003AE8FFF7C6FFFFF7DAFE002008BD003C0240D4
S31508003AF838B50446FCF7E4FF0546B4F1FF3F02D0A3
S31508003B08044B1B781C44FCF7DBFF401BA042FAD386
S31508003B1838BD00BF01000020074AD36823F4E063D4
S31508003B281B041B0C000200F4E060184340F0BF6059
S31508003B3840F40030D060704700ED00E030B4174B11
S31508003B48DB68C3F30223C3F10704042C28BF042443
S31508003B581D1D062D18D9033B4FF0FF3505FA04F449
S31508003B6821EA0401994005FA03F322EA03031943F3
S31508003B7800280BDB0901C9B200F1604000F5614075
S31508003B8880F8001330BC70470023E5E700F00F0003
S31508003B980901C9B2024B1954F4E700BF00ED00E069
S31508003BA814ED00E00138B0F1807F0AD2064B586060
S31508003BB8064AF02182F823100020986007221A6026
S31508003BC870470120704700BF10E000E000ED00E0F4
S31508003BD810B40A490C6924F440740C610C6944F45D
S31508003BE840740C610C6944F001040C610260BFF36F
S31508003BF86F8F43605DF8044B704700BF003C024076
S31508003C08074B1A6922F440721A611A6942F400725B
S31508003C181A611A6942F001021A610160704700BF09
S31508003C28003C0240074B1A6922F440721A611A6965
S31508003C3842F480721A611A6942F001021A61018017
S31508003C48704700BF003C0240064B1A6922F44072CE
S31508003C581A611A691A611A6942F001021A61017031
S31508003C68704700BF003C0240204BDB6813F0100F7A
S31508003C7807D01F4AD36943F01003D3611B4B1022A0
S31508003C88DA601A4BDB6813F0200F07D0184AD36995
S31508003C9843F00803D361154B2022DA60134BDB681F
S31508003CA813F0400F07D0124AD36943F00403D361CF
S31508003CB80E4B4022DA600D4BDB6813F0800F07D0F5
S31508003CC80B4AD36943F00203D361084B8022DA60B2
S31508003CD8064BDB6813F0020F07D0054AD36943F091
S31508003CE82003D361014B0222DA607047003C024088
S31508003CF850110020094B1B69002B01DB0020704777
S31508003D08064B074A5A6002F188325A601B69002B2B
S31508003D1801DB002070470120704700BF003C0240C5
S31508003D2823016745034A136943F0004313610020DA
S31508003D38704700BF003C024038B50446154B0022C0
S31508003D48DA61FCF7BDFE0546134BDB6813F4803FC2
S31508003D580AD0B4F1FF3FF7D0CCB1FCF7B1FE401B4F
S31508003D68A042F1D903200DE00B4BDB6813F0010FD5
S31508003D7802D0094B0122DA60074BDB6813F0F20F11
S31508003D8801D1002038BDFFF76FFF0120FAE70320AD
S31508003D98F8E700BF50110020003C0240F8B51D4C5A
S31508003DA8247E012C34D01F4616460D460446194B68
S31508003DB801221A764CF25030FFF7BEFF014698B931
S31508003DC8BCB1012C1AD0022C1DD032463B462846D7
S31508003DD8FFF7FEFE4CF25030FFF7AEFF01460E4ADB
S31508003DE8136923F0010313610A4B00221A76084661
S31508003DF8F8BDF1B22846FFF727FFEBE7B1B2284628
S31508003E08FFF710FFE6E731462846FFF7F9FEE1E730
S31508003E180221ECE750110020003C0240074B1A69C2
S31508003E2822F440721A611A6942F004021A611A6980
S31508003E3842EA002040F4803018617047003C02408E
S31508003E4810B449B1012921D0022902D04FF440748F
S31508003E5803E04FF4007400E000240E4B196921F4BE
S31508003E68407119611A6922431A611A6922F0F8021F
S31508003E781A611A6942EAC00040F0020018611A6914
S31508003E8842F480321A615DF8044B70474FF4807427
S31508003E98E3E700BF003C0240164B1B6813F4007F9B
S31508003EA810D0144B1A6822F400721A601A6842F481
S31508003EB800621A601A6822F400621A601A6842F4E4
S31508003EC800721A600B4B1B6813F4806F10D0094BED
S31508003ED81A6822F480621A601A6842F480521A60D4
S31508003EE81A6822F480521A601A6842F480621A60C4
S31508003EF8704700BF003C0240F8B5224B1B7E012BD9
S31508003F083ED00E4604461F4B01221A764CF2503014
S31508003F18FFF712FF074670BB4FF0FF33336023687D
S31508003F28012B16D0A568E368A2681344AB4220D9CA
S31508003F38217C2846FFF784FF4CF25030FFF7FCFE39
S31508003F48114A136923F0FA031361074680B9013544
S31508003F58E9E76168207CFFF761FF4CF25030FFF70C
S31508003F68EBFE0746084A136923F00403136100E0C9
S31508003F783560FFF791FF034B00221A763846F8BDDD
S31508003F880227FBE750110020003C024070B582B0BA
S31508003F98044600230193006801F058FA064610B152
S31508003FA8304602B070BD206801F063FA38B90123BB
S31508003FB8A364A36C012B0BD03546304614E00023C6
S31508003FC8A364206801F042FA0028F2D00646E7E71B
S31508003FD80021206801F064FA0028EDD04FF08056D9
S31508003FE8DEE7019B01330193019A4FF6FE739A4265
S31508003FF813D895B90021206801F052FAD8B91249A0
S31508004008206801F065FA0546B8B90021206801F06C
S3150800401860F8C30FE5D01D46E3E7019A4FF6FE732D
S315080040289A420DD810F0804F02D100236364B7E78F
S3150800403801236364B4E70646B2E74FF08056AFE754
S315080040484FF08076ACE700BF000010C12DE9F041BB
S3150800405888B004460F46FCF733FD0646002300934E
S3150800406801930821206801F047F9054618B1284642
S3150800407808B0BDE8F081216D0904206801F010FA3E
S3150800408805460028F3D14FF0FF330293082303931C
S3150800409830230493022305930023069301230793E9
S315080040A802A9206801F016F9206801F042FA0546C7
S315080040B80028DCD1804605E0FCF702FD801BB0F13C
S315080040C8FF3F43D02068426B40F22A431A420AD17E
S315080040D8436B13F4001FEFD000F0D2FF4DF8280009
S315080040E808F10108E8E7436B13F0080F25D1436B7D
S315080040F813F0020F24D1436B13F0200F23D140F29B
S315080041083A538363019A130203F47F0343EA02636B
S31508004118110A01F47F410B4343EA12633B60009A94
S31508004128130203F47F0343EA0263110A01F47F4189
S315080041380B4343EA12637B6099E70825856396E78C
S315080041480225856393E72025856390E74FF00045A8
S315080041588DE710B582B004460021009101910068E8
S3150800416800F0B7FF10F0007F16D169462046FFF722
S315080041786DFF034690B9019B13F4802F11D0216D6A
S315080041880904206801F08CF9034638B90221206829
S3150800419801F0B7F9034601E04FF40063184602B088
S315080041A810BD4FF08063F9E710B582B004460021C8
S315080041B800910191006800F08CFF10F0007F16D17D
S315080041C869462046FFF742FF034690B9019B13F458
S315080041D8803F11D0216D0904206801F061F9034672
S315080041E838B90021206801F08CF9034601E04FF43C
S315080041F80063184602B010BD4FF08063F9E770B542
S3150800420881B10D460446016D0904006801F0EBF911
S31508004218064608B1304670BD0021206800F059FFEF
S315080042282860F7E74FF00066F4E700002DE9F04745
S3150800423886B004460D4690461E46FCF741FC6DB10D
S31508004248074694F83430DBB2012B0DD0A36B43F044
S315080042580053A363012006B0BDE8F087A36B43F0BB
S315080042680063A3630120F6E70023A36308EB0603AC
S31508004278E26D93421BD8032384F83430236800225E
S31508004288DA62636C012B01D04FEA48284FF40071B3
S31508004298206801F031F8034678B122687C499163B1
S315080042A8A06B1843A063012084F83400D3E7A36BF6
S315080042B843F00073A3630120CDE74FF0FF33009363
S315080042C87302019390230293022303930023049312
S315080042D8012305936946206800F0FCFF012E0CD9D6
S315080042E8022323634146206801F036F88246BAF16C
S315080042F8000F0AD1DDF804902FE001232363414615
S31508004308206801F011F88246F1E72368604A9A6343
S31508004318A36B43EA0A03A363012084F83400002345
S31508004328236398E7206800F0ABFE2870C0F30723DC
S315080043386B70C0F30743AB70000EE8700435A9F13B
S31508004348040908F10108B8F1070FEBD9FCF7B8FB1F
S31508004358C01B0E9B98420FD273B12068426B40F27D
S315080043682A331A4216D1436B13F4004FEED0B9F12B
S31508004378000FEBD0D046E6E72368454A9A63A36B55
S3150800438843F00043A363012384F8343000232363EE
S31508004398032060E7436B13F4807F08D0012E06D903
S315080043A8636C032B03D001F01FF8002837D1236864
S315080043B85A6B12F0080F3ED15A6B12F0020F46D10B
S315080043C85A6B12F0200F4ED12068436B13F4001F66
S315080043D855D0B9F1000F52D000F052FE2870C0F33C
S315080043E807236B70C0F30743AB70000EE8700435FB
S315080043F8A9F10409FCF764FBC01B0E9B984201D27D
S31508004408002BE1D12368224A9A63A36B43F0004341
S31508004418A363012084F83400002323631BE7236879
S315080044281B499963A36B0343A363012084F83400EB
S31508004438002323630FE7164A9A63A36B43F008031E
S31508004448A363012084F834000023236303E7104A92
S315080044589A63A36B43F00203A363012084F834002C
S3150800446800232363F7E60A4A9A63A36B43F02003FB
S31508004478A363012084F8340000232363EBE640F2A3
S315080044883A538363012384F834300020E3E600BFF7
S31508004498FF0540002DE9F04788B004460D469046CA
S315080044A81E46FCF70DFB6DB1074694F83430DBB2AF
S315080044B8012B0DD0A36B43F00053A363012008B06A
S315080044C8BDE8F087A36B43F00063A3630120F6E712
S315080044D80023A36308EB0603E26D93421BD8032364
S315080044E884F8343023680022DA62636C012B01D021
S315080044F84FEA48284FF40071206800F0FDFE03468D
S3150800450878B1226867499163A06B1843A0630120B4
S3150800451884F83400D3E7A36B43F00073A363012040
S31508004528CDE74FF0FF330293730203939023049366
S315080045380023059306930123079302A9206800F030
S31508004548C9FE012E0CD9202323634146206800F0B2
S3150800455833FF8246BAF1000F0AD1DDF80C9033E032
S31508004568102323634146206800F00EFF8246F1E7D0
S3150800457823684C4A9A63A36B43EA0A03A363012098
S3150800458884F834000023236399E72B786A7843EA8A
S315080045980223AA7843EA0243EA7843EA026308A9A7
S315080045A841F81C3D0435A9F10409206800F06BFDA3
S315080045B808F10108B8F1070FE7D9FCF781FAC01B1B
S315080045C8109B98420FD273B12068426B40F21A3397
S315080045D81A4216D1436B13F4804FEED0B9F1000F87
S315080045E8EBD0D046E6E723682E4A9A63A36B43EADC
S315080045F80A03A363012384F83430002323630320C2
S315080046085DE7436B13F4807F07D0012E05D9636CE9
S31508004618032B02D000F0E8FEC0B923685A6B12F0E3
S31508004628080F1FD15A6B12F0020F27D15A6B12F0D6
S31508004638100F2FD01B4A9A63A36B43F01003A3638A
S31508004648012084F834000023236338E723681549D2
S315080046589963A36B0343A363012084F834000023FA
S3150800466823632CE70F4A9A63A36B43F00803A363F3
S31508004678012084F834000023236320E7094A9A6353
S31508004688A36B43F00203A363012084F834000023D4
S31508004698236314E740F23A529A63012384F83430C4
S315080046A800200CE7FF05400010B4436E9B0F0B7003
S315080046B8436EC3F383634B7090F8673003F00303C4
S315080046C88B7090F86630CB7090F865300B7190F85F
S315080046D864304B71836E1B0DCB80B0F86A3003F0DB
S315080046E80F030B72836EC3F3C0334B72836EC3F327
S315080046F880338B72836EC3F34033CB72836EC3F3F6
S3150800470800330B7300234B73436C002B40F08880EF
S31508004718826E40F6FC7303EA8203C26E43EA92731A
S315080047280B61C36EC3F3C2630B7590F86F3003F061
S3150800473807034B75C36EC3F342538B75C36EC3F336
S315080047488243CB75C36EC3F3C2330B760B69013349
S3150800475843650A7E02F00702023203FA02F242654C
S315080047680B7A03F00F040123A34083655B0A03FB56
S3150800477802F3C3654FF400730366C36EC3F380334D
S315080047884B76C36EC3F3C6138B76C36E03F07F03EB
S31508004798CB76036FDB0F0B77036FC3F341734B7746
S315080047A8036FC3F382638B77036FC3F38353CB77A4
S315080047B8036FC3F3405381F82030002381F8213072
S315080047C8B0F8722002F0010281F82220026FC2F3C3
S315080047D8C03281F82320026FC2F3803281F8242080
S315080047E8026FC2F3403281F82520026FC2F3003205
S315080047F881F82620026FC2F3812281F82720026FEA
S31508004808C2F3012281F82820026FC2F3460281F812
S315080048182920012281F82A2018465DF8044B70479A
S31508004828012B0BD003680E4A9A63836B43F08053B7
S315080048388363012380F834301846EEE7836E1B0439
S3150800484803F47C13B0F86E2013430B610B6901332C
S315080048589B024365C3654FF40073836503668CE75B
S31508004868FF05400070B590B004460123ADF8123034
S31508004878006800F015FC00286CD0636C032B45D142
S31508004888636C032B5DD1636C032B1DD0BDF8121026
S3150800489821650904206800F079FE054600285BD1E1
S315080048A80021206800F015FC60660421206800F0E5
S315080048B810FCA0660821206800F00BFCE0660C21B5
S315080048C8206800F006FC20670421206800F001FC37
S315080048D8000DE06405A92046FFF7E6FE00283ED14C
S315080048E8226D12040023206800F098FD054698BB3F
S315080048F8234653F8106B93E807008DE8070004343D
S3150800490894E80E00304600F09FFB25E0206800F08A
S3150800491828FE054600BB0021206800F0DAFB606720
S315080049280421206800F0D5FBA0670821206800F05C
S31508004938D0FBE0670C21206800F0CBFBC4F88000A8
S315080049489EE70DF11201206800F035FE054600289D
S3150800495899D001E04FF08065284610B070BD4FF039
S315080049688055F9E770B58AB0054600230493059380
S31508004978069307930893762309930AAB13E9070066
S315080049888DE8070004AB0ECB286800F05DFB18B16C
S31508004998012420460AB070BD0446104E0023336031
S315080049A8286800F075FB012333602846FFF7EEFAFE
S315080049B8034630B1012485F83440A86B1843A86328
S315080049C8E7E72846FFF74EFF03460028E1D001240B
S315080049D885F83440A86B1843A863DAE7A08025420F
S315080049E8C0B110B5044690F834307BB1032384F877
S315080049F834302046FFF7B6FF034670B90022A26393
S31508004A082263012284F83420184610BD037700F083
S31508004A18D3FEEBE70123184670470123F4E7436CF6
S31508004A280B60836C4B60C36C8B60036DCB60436D06
S31508004A380B61836D4B61C36D8B61036ECB6100207F
S31508004A487047000030B58BB004460D46032380F83E
S31508004A583430436C032B1CD0B1F5805F08D0B1F510
S31508004A68006F0AD079B1836B43F00063836314E05F
S31508004A78836B43F0805383630FE0FFF76AFBA36BEE
S31508004A881843A06309E0FFF78FFBA36B1843A063DD
S31508004A9803E0836B43F080538363A36B3BB12368BE
S31508004AA8104A9A63012084F834000BB030BD636855
S31508004AB80493A3680593E3680693079563690893BF
S31508004AC8A36909930AAB13E907008DE8070004AB45
S31508004AD80ECB206800F0B8FA012384F83430002099
S31508004AE8E3E700BFFF05400010B582B0044602A9F7
S31508004AF8002341F8043DFFF782FB18B10346A06B73
S31508004B081843A0630198C0F3432002B010BD000003
S31508004B18444B984219D0444B984222D0434B98426A
S31508004B282BD0434B984234D0424B98423DD0424B07
S31508004B38984246D0414B98424FD0414B984258D05C
S31508004B48404B984261D00120704703F560531A69B3
S31508004B5842F001021A611A6922F001021A6100205C
S31508004B68704703F550531A6942F002021A611A6926
S31508004B7822F002021A610020704703F540531A69A9
S31508004B8842F004021A611A6922F004021A61002026
S31508004B98704703F530531A6942F008021A611A6910
S31508004BA822F008021A610020704703F520531A6993
S31508004BB842F010021A611A6922F010021A610020DE
S31508004BC8704703F510531A6942F020021A611A69E8
S31508004BD822F020021A610020704703F500531A696B
S31508004BE842F040021A611A6922F040021A6100204E
S31508004BF8704703F5E0531A6942F080021A611A6988
S31508004C0822F080021A610020704703F5C0531A691A
S31508004C1842F480721A611A6922F480721A610020B5
S31508004C28704700BF00000240000402400008024026
S31508004C38000C02400010024000140240001802400E
S31508004C48001C024000200240F0B40A6892FAA2F258
S31508004C58B2FA82F22DE00E69C46893FAA3F5B5FA9A
S31508004C6885F56D00032707FA05F524EA050493FA7E
S31508004C78A3F5B5FA85F56D0006FA05F52C43C46063
S31508004C884C68022C3FD04C68056893FAA3F6B6FA26
S31508004C9886F67600032707FA06F625EA060593FA3E
S31508004CA8A3F3B3FA83F35B0004FA03F32B43036015
S31508004CB801320B6833FA02F459D001249440234090
S31508004CC8F6D04C68013C012CC5D88E68846893FADE
S31508004CD8A3F5B5FA85F56D00032707FA05F524EA5D
S31508004CE8050493FAA3F5B5FA85F56D0006FA05F5F0
S31508004CF82C438460CD68446824EA030403FB05F55D
S31508004D082C434460A7E793FAA3F4B4FA84F4072C6F
S31508004D1815D84E69046A93FAA3F5B5FA85F5AD0070
S31508004D280F2707FA05F524EA050493FAA3F5B5FA51
S31508004D3885F5AD0006FA05F52C430462A3E74D6927
S31508004D48466A1C0A94FAA4F7B7FA87F7BF004FF021
S31508004D580F0C0CFA07F726EA070694FAA4F4B4FA2D
S31508004D6884F4A40005FA04F4344344628BE700206B
S31508004D78F0BC704782B0234A136843F001031360F6
S31508004D88204B1B6813F0020FFAD01E4B00229A60BC
S31508004D981A680192019A22F0867222F480320192E8
S31508004DA8019A22F080620192019A1A601A6822F022
S31508004DB8F80242F080021A60124B1B6813F0007F53
S31508004DC8FAD1104B104A5A60104AC3F88420DA6898
S31508004DD822F4F852DA60DA6822F40052DA60DA68FD
S31508004DE842F41F02DA60DA6842F40012DA605A6F8F
S31508004DF822F001025A675A6F42F080725A670020F9
S31508004E0802B07047003802401030002400300020F5
S31508004E18034B9B68C3F30313024AD35CD840704715
S31508004E280038024068620008034B9B68C3F3822374
S31508004E38024AD35CD84070470038024078620008B6
S31508004E48034B9B68C3F34233024AD35CD840704786
S31508004E5800380240786200080F4B5B6803F4800349
S31508004E6823B90E4B082803D0002070470C4BF9E7E6
S31508004E78094A506800F03F00B3FBF0F35068C0F3E6
S31508004E88881000FB03F05368C3F3014301335B0042
S31508004E98B0FBF3F0704700BF003802400024F40066
S31508004EA800127A0008B5084B9B6803F00C03042B1C
S31508004EB807D0082B01D0054808BD0820FFF7CCFF06
S31508004EC8FAE70348F8E700BF003802400024F40070
S31508004ED800127A0010B50446FFF7E4FF2060FFF7D2
S31508004EE897FF6060FFF7A0FFA0606068FFF7A8FF5C
S31508004EF8E06010BD0B4B1B680B4AA2FB03235A0A3A
S31508004F0841F2883303FB02F35A1E43B1416B134639
S31508004F1811F0800FF8D0C5238363002070474FF03F
S31508004F28004070470C000020D34D6210154B1B68D3
S31508004F38154AA2FB03235A0A41F2883303FB02F3F4
S31508004F485A1EDBB1416B134611F0450FF8D011F420
S31508004F58006FF5D1436B13F0040F07D1436B13F0B9
S31508004F68010F07D1C5238363002070470423836391
S31508004F781846704701238363184670474FF0004068
S31508004F88704700BF0C000020D34D6210114B1B68F8
S31508004F98114AA2FB03235A0A41F2883303FB02F398
S31508004FA85A1E9BB1416B134611F0450FF8D011F400
S31508004FB8006FF5D1436B13F0040F03D1C523836340
S31508004FC80020704704238363184670474FF0004053
S31508004FD8704700BF0C000020D34D6210184B1B68A1
S31508004FE8184AA2FB03235A0A41F2883303FB02F341
S31508004FF85A1EFBB1416B134611F0450FF8D011F450
S31508005008006FF5D1436B13F0040F0BD1436B13F004
S31508005018010F0BD1436B13F0400F0ED04023836367
S315080050280020704704238363184670470123836367
S31508005038184670474FF0004070470020704700BF79
S315080050480C000020D34D621084B010B402AC84E87A
S315080050580E000B46039A1343049A1343059A1343FF
S31508005068069A1343079A1343426822F4FD4222F02C
S315080050787F021343436000205DF8044B04B0704771
S31508005088D0F8800070470B68C0F880300020704759
S3150800509808B5032303600220FEF72AFD002008BD91
S315080050A8006800F0030070470B6883604B688A68DD
S315080050B81343CA6813430A691343C26822F47F6212
S315080050C822F00F021343C360002070470069C0B27C
S315080050D8704714304058704738B5524B1B68524CC5
S315080050E8A4FB03435B0A02FB03F2531E002A60D0A3
S315080050F8446B1A4614F0450FF7D014F4006FF4D130
S31508005108436B13F0040F07D1436B13F0010F07D055
S315080051180123836318464EE00423836318464AE04E
S315080051280D460446C5238363FFF7D0FFA84201D07E
S31508005138012040E000212046FFF7CBFF3B4B034008
S31508005148D3B300283ADB10F0804F3AD110F0005F4D
S3150800515839D110F0805F38D110F0006F38D110F0CF
S31508005168806F38D110F0807F38D110F4000F38D10D
S3150800517810F4800F38D110F4001F38D110F4801FAE
S3150800518838D110F4802F38D110F4003F38D110F4F4
S31508005198803F38D110F4004F38D110F4804F38D1F9
S315080051A810F4005F38D110F0080F38D04FF400001B
S315080051B801E04FF0004038BD0020FCE74FF00070D2
S315080051C8F9E74020F7E78020F5E74FF48070F2E723
S315080051D84FF40070EFE74FF48060ECE74FF4006097
S315080051E8E9E74FF48050E6E74FF40050E3E74FF459
S315080051F88040E0E74FF40040DDE74FF40030DAE797
S315080052084FF48020D7E74FF40020D4E74FF48010F6
S31508005218D1E74FF40010CEE74FF48000CBE74FF400
S315080052288030C8E70C000020D34D621008E0FFFD67
S3150800523870B5264B1B68264CA4FB03435C0A41F24F
S31508005248883303FB04F35C1EB3B3456B234615F09A
S31508005258450FF8D015F4006FF5D1436B13F0040F1A
S3150800526807D1436B13F0010F07D001238363184650
S3150800527824E004238363184620E016460D460446B0
S31508005288FFF724FFA84201D0012017E0C523A3632E
S3150800529800212046FFF71DFF10F4604F08D010F4D0
S315080052A8804F0CD110F4004F0CD04FF4805005E015
S315080052B8000C3080002001E04FF0004070BD4FF42C
S315080052C80050FBE74FF48030F8E700BF0C000020D9
S315080052D8D34D62100B6843624B6883628B68CA6851
S315080052E813430A6913434A691343C26A22F0F70249
S315080052F81343C3620020704730B587B0054601914D
S315080053081024029440230393002304934FF48063E4
S31508005318059301A9FFF7C8FE41F2883221462846B7
S31508005328FFF7DAFE07B030BD30B587B005460191FC
S315080053381124029440230393002304934FF48063B3
S31508005348059301A9FFF7B0FE41F28832214628469F
S31508005358FFF7C2FE07B030BD30B587B005460191E4
S315080053681224029440230393002304934FF4806382
S31508005378059301A9FFF798FE41F288322146284687
S31508005388FFF7AAFE07B030BD30B587B005460191CC
S315080053981824029440230393002304934FF480634C
S315080053A8059301A9FFF780FE41F28832214628466F
S315080053B8FFF792FE07B030BD30B587B005460191B4
S315080053C81924029440230393002304934FF480631B
S315080053D8059301A9FFF768FE41F288322146284657
S315080053E8FFF77AFE07B030BD30B587B0054600230B
S315080053F801930C2402944022039204934FF4806389
S31508005408059301A9FFF750FE034A21462846FFF7E8
S3150800541863FE07B030BD00BF00E1F50530B587B0BB
S315080054280546019207240294402303930023049314
S315080054384FF48063059301A9FFF736FE41F28832D7
S3150800544821462846FFF748FE07B030BD10B586B096
S315080054580446002301930293039304934FF480634D
S31508005468059301A9FFF720FE2046FFF743FD06B07E
S3150800547810BD10B586B004464FF4D57301930823BA
S31508005488029340230393002304934FF48063059300
S3150800549801A9FFF709FE2046FFF7A0FD06B010BDD3
S315080054A830B587B005460191372402944023039303
S315080054B8002304934FF48063059301A9FFF7F4FDCD
S315080054C841F2883221462846FFF706FE07B030BD66
S315080054D810B586B0044641F0004141F480110191A7
S315080054E82923029340230393002304934FF48063EC
S315080054F8059301A9FFF7D8FD2046FFF747FD06B033
